:02000000FE2BD5
:1004DE0083169F010800F000700883128500080043
:1004EE00F3000230700603198D2AA62A8312051412
:1004FE000800831285140800831205150800831264
:10050E000516080083128516080008007308F1000E
:10051E00F2017208003A0319952A8C2A7108003AE2
:10052E0003197D2A013A0319802A033A0319832AF3
:10053E00063A0319862A013A0319892A8C2A70036E
:10054E00031D0800C82AFE30FF007F0883128505B0
:10055E000800FD30FF007F08831285050800FB3080
:10056E00FF007F08831285050800EF30FF007F082B
:10057E00831285050800DF30FF007F088312850592
:10058E0008007308F100F2017208003A0319D02A2C
:10059E008C2A7108003A0319AA2A013A0319B02AC3
:1005AE00033A0319B62A063A0319BC2A013A03196B
:1005BE00C22A8C2A0800F30070030319FA2A162B9C
:1005CE008316051408008316851408008316051576
:1005DE000800831685150800831605160800831675
:1005EE008516080008007308F100F2017208003A3F
:1005FE000319022BF92A7108003A0319E72A013A66
:10060E000319EA2A033A0319ED2A013A0319F02ACB
:10061E00073A0319F32A013A0319F62AF92A700840
:10062E00031D0800382BFE30FF007F08831685055A
:10063E000800FD30FF007F08831685050800FB309B
:10064E00FF007F08831685050800EF30FF007F0846
:10065E00831685050800DF30FF007F0883168505A9
:10066E0008007308F100F2017208003A0319402BDA
:10067E00F92A7108003A03191A2B013A0319202B93
:10068E00033A0319262B063A03192C2B013A0319A8
:10069E00322BF92A08006F22F0010030E222F0011D
:1006AE000130E222F0010230E222F0010430E222B7
:1006BE00F0010530E222F001F00A00307722F0015D
:1006CE00F00A01307722F001F00A02307722F001B1
:1006DE00F00A04307722F001F00A0530772201305B
:1006EE0072220B30F6002630F5005D30F400F40B6C
:1006FE007E2BF50B7E2BF60B7E2B852B0330722279
:10070E000B30F6002630F5005D30F400F40B8D2B27
:10071E00F50B8D2BF60B8D2B942B073072220B3095
:10072E00F6002630F5005D30F400F40B9C2BF50B33
:10073E009C2BF60B9C2BA32B173072220B30F60042
:10074E002630F5005D30F400F40BAB2BF50BAB2B24
:10075E00F60BAB2BB22B373072220B30F600263055
:10076E00F5005D30F400F40BBA2BF50BBA2BF60B3B
:10077E00BA2BC12B363072220B30F6002630F50024
:10078E005D30F400F40BC92BF50BC92BF60BC92BFE
:10079E00D02B343072220B30F6002630F5005D304F
:1007AE00F400F40BD82BF50BD82BF60BD82BDF2B34
:1007BE00303072220B30F6002630F5005D30F4003A
:1007CE00F40BE72BF50BE72BF60BE72BEE2B20307C
:1007DE0072220B30F6002630F5005D30F400F40B7B
:1007EE00F62BF50BF62BF60BF62BFD2B762B83014A
:0207FE00522B7C
:02400E00E43C90
:00000001FF
